{
  "contractName": "GameStore",
  "abi": [
    {
      "inputs": [],
      "payable": false,
      "stateMutability": "nonpayable",
      "type": "constructor"
    },
    {
      "constant": false,
      "inputs": [],
      "name": "comprar",
      "outputs": [],
      "payable": true,
      "stateMutability": "payable",
      "type": "function"
    },
    {
      "constant": false,
      "inputs": [],
      "name": "transferir",
      "outputs": [],
      "payable": false,
      "stateMutability": "nonpayable",
      "type": "function"
    },
    {
      "constant": true,
      "inputs": [],
      "name": "getSaldo",
      "outputs": [
        {
          "internalType": "uint256",
          "name": "",
          "type": "uint256"
        }
      ],
      "payable": false,
      "stateMutability": "view",
      "type": "function"
    }
  ],
  "bytecode": "0x608060405234801561001057600080fd5b50336000806101000a81548173ffffffffffffffffffffffffffffffffffffffff021916908373ffffffffffffffffffffffffffffffffffffffff1602179055506101dd806100606000396000f3fe6080604052600436106100345760003560e01c806379879d3014610039578063b981f53a14610043578063e2eec9a71461005a575b600080fd5b610041610085565b005b34801561004f57600080fd5b506100586100dd565b005b34801561006657600080fd5b5061006f6101a0565b6040518082815260200191505060405180910390f35b67016345785d8a000034101561009a57600080fd5b33600160006101000a81548173ffffffffffffffffffffffffffffffffffffffff021916908373ffffffffffffffffffffffffffffffffffffffff160217905550565b6000809054906101000a900473ffffffffffffffffffffffffffffffffffffffff1673ffffffffffffffffffffffffffffffffffffffff163373ffffffffffffffffffffffffffffffffffffffff161461013657600080fd5b6000809054906101000a900473ffffffffffffffffffffffffffffffffffffffff1673ffffffffffffffffffffffffffffffffffffffff166108fc479081150290604051600060405180830381858888f1935050505015801561019d573d6000803e3d6000fd5b50565b60004790509056fea265627a7a72315820be20ea24577d6e6a03b2e82428b4bcd97f105ac2ace143fff3e6d39a4530790c64736f6c63430005100032",
  "source": "pragma solidity ^0.5.0;\r\n\r\ncontract GameStore {\r\n    address payable private gerente;\r\n    address private comprador;\r\n    \r\n    constructor() public {\r\n        gerente = msg.sender;\r\n    }\r\n    function comprar() public payable{\r\n        require(msg.value >= .1 ether);\r\n        comprador = msg.sender;\r\n    }\r\n    function transferir() public restricted {\r\n        gerente.transfer(address(this).balance);\r\n    }\r\n    modifier restricted() {\r\n        require(msg.sender == gerente);\r\n        _;\r\n    }\r\n\r\n    function getSaldo() public view returns (uint) {\r\n        return uint(address(this).balance);\r\n    }\r\n    \r\n}",
  "sourcePath": "C:\\Users\\victo\\OneDrive\\Ãrea de Trabalho\\GameStore\\game-store\\contracts\\GameStore.sol",
  "compiler": {
    "name": "solc",
    "version": "0.5.16+commit.9c3226ce.Emscripten.clang"
  },
  "schemaVersion": "3.4.3",
  "updatedAt": "2021-11-30T04:36:07.117Z",
  "devdoc": {
    "methods": {}
  },
  "userdoc": {
    "methods": {}
  }
}